:100000000C9439030C9461030C9461030C94610308
:100010000C9461030C9461030C9461030C946103D0
:100020000C9461030C9461030C9461030C946103C0
:100030000C9461030C9461030C9461030C946103B0
:100040000C940E090C9461030C947E090C945809CD
:100050000C9461030C9461030C9461030C94610390
:100060000C9461030C94610307634236B79BD8A7D5
:100070001A39685618AEBAAB558C1D3CB7CC5763CD
:10008000BD6DEDFD753EF6177231BF000000803F7B
:1000900008000000BE922449123EABAAAA2ABECD97
:1000A000CCCC4C3E00000080BEABAAAAAA3E000009
:1000B0000000BF000000803F000000000008417801
:1000C000D3BB4387D1133D190E3CC3BD4282AD2B38
:1000D0003E68EC8276BED98FE1A93E4C80EFFFBE30
:1000E00001C4FF7F3F00000000004602000000FF47
:1000F0000800053E5B4F5B3E053E6B4F6B3E051CAB
:100100003E7C3E1C05183C7E3C18051C577D571C48
:10011000051C5E7F5E1C0400183C1805FFE7C3E762
:10012000FF040018241805FFE7DBE7FF0530483A15
:10013000060E05262979292605407F050507054075
:100140007F05253F055A3CE73C5A057F3E1C1C08AD
:1001500005081C1C3E7F0514227F221405FFFFFFAB
:10016000FFFF05F0F0F0F0F003FFFFFF05000000D7
:10017000FFFF050F0F0F0F0F0508047E0408051081
:10018000207E20100508082A1C0805081C2A0808DB
:1001900005AA005500AA05AA55AA55AA0530383E59
:1001A000383005060E3E0E06020000015F03070010
:1001B0000705147F147F1405444AFF4A3205631370
:1001C0000864630536494936480107033E41410347
:1001D00041413E05082A1C2A080508083E08080275
:1001E00060E0040808080802606005601008040365
:1001F000053E5149453E0304027F05714949494680
:10020000054149494936050F0808087F054F494906
:100210004931053E4949493005030101017F053651
:100220004949493605064949493E026C6C026CEC65
:100230000308142204141414140322140805015989
:10024000090906053E415D594E057E0909097E05ED
:100250007F49494936053E41414141057F41414180
:100260003E057F49494941057F09090901053E418C
:10027000414979057F0808087F03417F41053041E6
:1002800041413F057F08142241057F404040400521
:100290007F020C027F057F0408107F053E4141412B
:1002A0003E057F09090906053E4141617E057F093A
:1002B0001929460546494949310501017F010105D2
:1002C0003F4040403F051F2040201F053F40384031
:1002D0003F056314081463050304780403056151A2
:1002E000494543037F414105030408106003414130
:1002F0007F0504020102040480808080030102045F
:10030000043844447C047F4444380438444444045E
:100310003844447F043854545804047E05010418BA
:10032000A4A47C047F040478017D0384857C047F7D
:10033000102844017F057C04780478047C04047848
:10034000043844443804FC24241804182424FC04ED
:100350007C040408045854543403047F04043C40CF
:10036000407C041C20407C053C4030403C046C1028
:10037000106C041CA0A07C046454544C0408364146
:1003800041017F04414136080402010201057F4119
:1003900041417F053E555555410538444438440593
:1003A0007C2A2A3E14057E0202060605027E027E93
:1003B00002056355494163053844443C0405407EC9
:1003C000201E200506027E020208631308646300F3
:1003D0006060052A2A2A2A2A03514A4403444A51C2
:1003E000050000FF010303E080FF053612362436C6
:1003F00003020502021818021010053040FF010127
:10040000041F01011E000000000901017F017F029D
:100410000C027F0000000000000100017D04182490
:100420007E2404447E454105221C141C2205012A19
:100430007C2A010177044E55553903020002077EDC
:1004400081BDA5A5817E0326292F0508142A142223
:10045000040808081803080808077E81BD95A981CB
:100460007E0501010101010302050203242E24037C
:100470001915120315150A02020104F82040780527
:1004800006097F017F021818040080A0C003121F14
:1004900010032629260522142A140808402F1008C4
:1004A000041E117C08402F10080462554C09155594
:1004B0003F1008041E117C053048484D4005781552
:1004C000161478057814161578057A1514157A051A
:1004D00078161516790578151415780578141514FD
:1004E00078077E09097F494941059EA161212105BF
:1004F0007C54554644057C54564544057E55544528
:1005000046057C5554454403457E4403447E4503DB
:10051000467D4603457C4505087F49413E057C0AEA
:1005200011227D053844454638053844464538058E
:100530003A4544453A053846454639053845444527
:1005400038052214081422057C625A463E053C40B8
:1005500041423C053C4042413C053C4241423C0555
:100560003C4140413C0502047A0502043F12120C52
:10057000057E49494E30043845467C043844467D62
:10058000043846457E043A45467D043845447D049A
:10059000304A4D7A0720545438545458049CA2626F
:1005A0002204385556580438545659043856555A6A
:1005B000043855545902017A027A01030279020380
:1005C00002780204304B4B3C047A090A710430492A
:1005D0004A300430484A3104304A49320432494AE8
:1005E0003104394444390508082A08080438544CB1
:1005F0003804384142780438404279043842417A1C
:10060000043A40407A0418A0A27904FC2828100477
:100610001AA0A07A00000000240027002A00000091
:100620000000250028002B00000000002300260009
:100630002900040404040404040402020202020265
:100640000303030303030102040810204080010296
:100650000408102001020408102000000008000215
:100660000100000304070000000000000000B009C2
:100670004F0D11241FBECFEFD8E0DEBFCDBF11E07C
:10068000A0E0B1E0ECE8F4E202C005900D92AA31DE
:10069000B107D9F721E0AAE1B1E001C01D92AF3F57
:1006A000B207E1F713E0C8E3D3E004C02197FE01ED
:1006B0000E940711C733D107C9F70E94110A0C9491
:1006C00039120C940000829590E09C013595279595
:1006D000359527952373880F991F880F991F8C7C58
:1006E000282B30E0C901959587958575220F331F1A
:1006F0002A7A822B0895833081F028F4813099F092
:100700008230A9F008958730A9F08830C9F084308C
:10071000B1F4809180008F7D03C0809180008F773D
:1007200080938000089584B58F7784BD089584B543
:100730008F7DFBCF8091B0008F778093B0000895BC
:100740008091B0008F7DF9CFCF93DF93282F30E0D9
:10075000F901E65AF94F8491F901EA5BF94FD49116
:10076000F901EE5CF94FC491CC23A1F081110E94F4
:100770007B03EC2FF0E0EE0FFF1FE85DF94FA59132
:10078000B491EC91ED2381E090E009F480E0DF91F9
:10079000CF91089580E090E0FACF1F93CF93DF933D
:1007A000282F30E0F901E65AF94F8491F901EA5B0C
:1007B000F94FD491F901EE5CF94FC491CC23A9F023
:1007C000162F81110E947B03EC2FF0E0EE0FFF1F2C
:1007D000E25EF94FA591B4918FB7F894EC911111A5
:1007E00008C0D095DE23DC938FBFDF91CF911F919E
:1007F0000895DE2BF8CFCF93DF9390E0FC01EA5B06
:10080000F94F24918E5C994FFC0184918823D1F09B
:1008100090E0880F991FFC01EC5EF94FA591B4910F
:10082000FC01E25EF94FC591D49161110EC09FB7F2
:10083000F8948C91E22FE0958E238C932881E2230B
:10084000E8839FBFDF91CF9108958FB7F894EC9123
:10085000E22BEC938FBFF6CF3FB7F894809126013F
:1008600090912701A0912801B091290126B5A89B5C
:1008700005C02F3F19F00196A11DB11D3FBFBA2F32
:10088000A92F982F8827BC01CD01620F711D811DF2
:10089000911D42E0660F771F881F991F4A95D1F777
:1008A0000895AF92BF92CF92DF92EF92FF920F9393
:1008B0001F93CF93DF936C017B018B01040F151FF6
:1008C000EB015E01AE18BF08C017D10759F069915E
:1008D000D601ED91FC910190F081E02DC6010995C2
:1008E000892B79F7C501DF91CF911F910F91FF906F
:1008F000EF90DF90CF90BF90AF900895FC01538DA3
:10090000448D252F30E0842F90E0821B930B5417E9
:1009100010F0CF96089501970895FC01918D828D76
:10092000981761F0A28DAE0FBF2FB11D5D968C910F
:10093000928D9F5F9F73928F90E008958FEF9FEF4E
:100940000895FC01918D828D981731F0828DE80F0A
:10095000F11D858D90E008958FEF9FEF0895FC01C4
:10096000918D228D892F90E0805C9F4F821B910991
:100970008F73992708958AE291E00E94AF0421E0E5
:10098000892B09F420E0822F089580E090E0892BE4
:1009900029F00E94BB0481110C9400000895FC0111
:1009A000A48DA80FB92FB11DA35ABF4F2C91848DD0
:1009B00090E001968F739927848FA689B7892C932D
:1009C000A089B1898C91837080648C93938D848D80
:1009D000981306C00288F389E02D80818F7D808383
:1009E0000895EF92FF920F931F93CF93DF93EC0143
:1009F00081E0888F9B8D8C8D98131AC0E889F989C6
:100A0000808185FF15C09FB7F894EE89FF896083C8
:100A1000E889F98980818370806480839FBF81E049
:100A200090E0DF91CF911F910F91FF90EF9008958B
:100A3000F62E0B8D10E00F5F1F4F0F731127E02E66
:100A40008C8D8E110CC00FB607FCFACFE889F9899E
:100A5000808185FFF5CFCE010E94CF04F1CFEB8DD1
:100A6000EC0FFD2FF11DE35AFF4FF0829FB7F89472
:100A70000B8FEA89FB8980818062CFCF682F8AE261
:100A800091E00C94F104CF93DF93EC01888D8823DF
:100A9000B9F0AA89BB89E889F9898C9185FD03C0E1
:100AA000808186FD0DC00FB607FCF7CF8C9185FFC6
:100AB000F2CF808185FFEDCFCE010E94CF04E9CF38
:100AC000DF91CF910895CF92DF92EF92FF920F9333
:100AD0001F93CF93DF93EC0188858823A1F0809149
:100AE0001B01882361F08FB7F89490911B0191301E
:100AF00041F59DB390931A019DB39DBB8FBF80E5D7
:100B00008CBD81E08DBD60E08F810E94CD03888522
:100B10008823D1F030E020E08B8590E0880F991F8A
:100B200028173907C8F5EE85FF85E20FF31F80818E
:100B30008EBD00000DB407FEFDCF8EB52F5F3F4F79
:100B4000EBCF80931A01DBCF10E000E08B8590E0C3
:100B5000880F991F08171907F8F4EE85FF85E00F35
:100B6000F11FE080DE80CD8088E0F82E6E2D661FBC
:100B70006627661F8C2D0E94CD03EE0C61E08D2D43
:100B80000E94CD0360E08D2D0E94CD03FA94F110F8
:100B9000EDCF0F5F1F4FDACF61E08F810E94CD0351
:100BA0008885882371F080911B01882351F09FB7BD
:100BB000F89420911B0180911A01213059F48DBBCA
:100BC0009FBFDF91CF911F910F91FF90EF90DF902A
:100BD000CF9008958FBFF5CFFC01438550E0440FBF
:100BE000551F70E060E0868597850C943212BF92A5
:100BF000CF92DF92EF92FF920F931F93CF93DF93E9
:100C0000FC012385621708F04EC0EC01F9E06F9FEC
:100C100070011124D12CC12C062F10E0BB24B394F9
:100C2000BC0CEC85FD85EE0DFF1D808590E00C2C45
:100C300002C0959587950A94E2F780FF27C0CE0100
:100C40000E94EC058B858150990B801B910B880FBE
:100C5000991F2E853F85820F931FFC01B082EC8582
:100C6000FD85EE0DFF1DEC0DFD1D40818B85815036
:100C7000990B801B910B880F991F2E853F85820F42
:100C8000931FFC014183CE010E946305FFEFCF1A41
:100C9000DF0A88E0C816D10409F68C859D85E80E28
:100CA000F91EF7011086DF91CF911F910F91FF90F0
:100CB000EF90DF90CF90BF900895E091E601F09122
:100CC000E70188E0DF011D928A95E9F7E091E601EE
:100CD000F091E7018FEF80878091EE01882329F062
:100CE00060E08AED91E00E94F70581E00895CF92DF
:100CF000DF92EF92FF920F931F93CF93DF93EC015C
:100D0000DD24D394F12CE12C01E010E0B9E0CB2EEE
:100D1000CE010E94EC0598010E2C02C0220F331F59
:100D20000A94E2F7E0E090E08B85E81798F5EC9DF7
:100D3000A0011124AC85BD85A40FB51F18966C9138
:100D400070E062237323672B19F16E2F70E08150DE
:100D5000990B861B970B880F991FAE85BF85A80F2F
:100D6000B91FDC92AC85BD85A40FB51FAE0DBF1DAC
:100D7000FC918B858150990B861B970B880F991FCF
:100D80004E855F85840F951FDC011196FC9391E0E1
:100D9000EF5FCACF992319F0CE010E946305BFEF20
:100DA000EB1AFB0AD39488E0E816F10409F0B0CFFF
:100DB00080E099E02B85821748F4EC85FD85899FBA
:100DC000E00DF11D112410868F5FF4CFDF91CF91DC
:100DD0001F910F91FF90EF90DF90CF900895DF92D9
:100DE000EF92FF920F931F93CF93DF936A307105B9
:100DF00009F46BC08A017B01EC01DB840E94EC05E5
:100E000060E07FEF7D0D82E0E816F10409F44FC049
:100E1000A8F4E114F10411F1F1E0EF16F10409F482
:100E20003FC06F5F761778F7CE01DF91CF911F91AA
:100E30000F91FF90EF90DF900C94630583E0E8162C
:100E4000F104E1F1E4E0EE16F10459F791E0011547
:100E5000110509F490E0919589E006C091E0011533
:100E6000110509F090E08CE0462F50E02B852150D1
:100E7000330B241B350B220F331FEE85FF85E20F4A
:100E8000F31F80832B852150330B241B350B220F3E
:100E9000331F4E855F85240F351FF9019183C1CF24
:100EA000902F083011050CF097E08BE0DDCF902FEC
:100EB000003111050CF09FE08AE0D6CF91E00115DA
:100EC000110509F490E08FE0CFCF21E041305105CA
:100ED00009F020E0FC01248B4130510549F4DF91F9
:100EE000CF911F910F91FF90EF90DF900C947706B8
:100EF000DF91CF911F910F91FF90EF90DF900895B8
:100F00002F923F924F925F926F927F928F929F9219
:100F1000AF92BF92CF92DF92EF92FF920F931F9307
:100F2000CF93DF9300D0CDB7DEB7A62E4983722EC4
:100F3000682F70E090E080E00E94150E9B01AC01EC
:100F400060E070E080E090E40E94A30E20E030E0DA
:100F500040E85FE30E94720D0E94DF0D362E09808B
:100F600001C0330C0A94EAF7398210E000E0B12C9A
:100F7000C12CD12C7601C3940A151B050CF039C184
:100F8000972C900E6090DC018090E501662009F4BA
:100F90007AC0882009F4BEC0B7E02B2E291408F4CB
:100FA000B9C02091E6013091E7014091DE01892D21
:100FB00090E05091DD01552309F458C0442331F0ED
:100FC000A7E04A2E512C481A590AC201820F931FDA
:100FD000FC0180810E94630339808329662009F423
:100FE000A5C0882009F43FC067E0462E4914D8F117
:100FF0009091DD0191110E9463034091E6015091AF
:10100000E701292D30E09091DE0167E070E0621B7E
:10101000730B911101C0B901460F571FFA0180836C
:10102000E091E601F091E70140858091DE0188239F
:1010300009F472C057E0252E312C221A330AD70149
:10104000C60104C0880F991FAA1FBB1F2A94D2F79C
:10105000842B80878091EE01882329F060E08AED5F
:1010600091E00E94F7050F5F1F4F86CF442331F0B8
:10107000F7E02F2E312C281A390AC101820F931F55
:10108000FC018081A9CF892D90E02091DD012223F0
:10109000D1F1E7E02E2E312C281A390AC10191E056
:1010A00001C0990F8A95EAF78820A1F177E0372EE1
:1010B000391480F1A091E601B091E7014090DE0182
:1010C0004A8230E020E080E0622F5A8047E050E022
:1010D000421B530B511001C0A9014A0F5B1FFA01BB
:1010E0004081492351F01601270104C0220C331C12
:1010F000441C551C6A95D2F782292F5F3F4F283038
:10110000310511F769CF91E0092C01C0990F0A94BC
:10111000EAF7CACF80E060CFD701C60104C0880FCC
:10112000991FAA1FBB1F9A94D2F792CF882009F467
:101130009ACF97E0392E391408F495CFB701A6015C
:10114000092C04C0440F551F661F771F0A94D2F75D
:10115000842EB42FB09527E030E029193109B7016A
:10116000A60104C0440F551F661F771F2A95D2F7AA
:10117000642EA42FA09550E040E090E09A01E09109
:10118000E601F091E7012090DE019090DD01BC01C5
:10119000042E02C0759567950A94E2F760FF1BC0A4
:1011A000222021F027E030E0241B350BE20FF31F53
:1011B0002081382D9110362D232B20834F5F5F4FD8
:1011C00048305105D9F6E091E601F091E701442459
:1011D0004A9440863FCF222021F027E030E0241BB4
:1011E000350BE20FF31F20813B2F91103A2F232361
:1011F000E4CF0F900F90DF91CF911F910F91FF904F
:10120000EF90DF90CF90BF90AF909F908F907F90A6
:101210006F905F904F903F902F9008951F920F9284
:101220000FB60F9211242F933F938F939F93AF93F9
:10123000BF938091220190912301A0912401B0914C
:1012400025013091210123E0230F2D3758F5019618
:10125000A11DB11D209321018093220190932301B0
:10126000A0932401B093250180912601909127013C
:10127000A0912801B09129010196A11DB11D809373
:10128000260190932701A0932801B0932901BF91D3
:10129000AF919F918F913F912F910F900FBE0F9023
:1012A0001F90189526E8230F0296A11DB11DD2CFDD
:1012B0001F920F920FB60F9211242F933F934F93CB
:1012C0005F936F937F938F939F93AF93BF93EF93AE
:1012D000FF938AE291E00E94CF04FF91EF91BF91CA
:1012E000AF919F918F917F916F915F914F913F91BE
:1012F0002F910F900FBE0F901F9018951F920F9275
:101300000FB60F9211242F938F939F93EF93FF9318
:10131000E0913A01F0913B018081E0914001F09130
:10132000410182FD1BC09081809143018F5F8F73CB
:1013300020914401821741F0E0914301F0E0E65D25
:10134000FE4F958F80934301FF91EF919F918F9175
:101350002F910F900FBE0F901F9018958081F4CFA2
:10136000EAE2F1E01382128288EE93E0A0E0B0E0BE
:1013700084839583A683B7838CE091E091838083F7
:1013800085EC90E09587848784EC90E0978786874A
:1013900080EC90E0918B808B81EC90E0938B828B42
:1013A00082EC90E0958B848B86EC90E0978B868B1B
:1013B000118E128E138E148EEAEDF1E015821682D4
:1013C0008AE0878381E0808727EC31E032872187BC
:1013D0008387848B22E030E0318320838283838380
:1013E0001482E4EDF1E0808393E091831282938391
:1013F00014821582EEECF1E08083918327E0228352
:101400009383148215829091010120910001E8ECF0
:10141000F1E080838183228324E023838483958386
:101420000895789484B5826084BD84B5816084BD5C
:1014300085B5826085BD85B5816085BD80916E0072
:10144000816080936E0010928100809181008260A3
:1014500080938100809181008160809381008091E0
:1014600080008160809380008091B10084608093CF
:10147000B1008091B00081608093B00080917A00CB
:10148000846080937A0080917A00826080937A00F1
:1014900080917A00816080937A0080917A008068E0
:1014A00080937A001092C100E0913A01F0913B01E3
:1014B00082E08083E0913601F09137011082E09163
:1014C0003801F09139018FEC808310924201E09154
:1014D0003E01F0913F0186E08083E0913C01F09174
:1014E0003D01808180618083E0913C01F0913D016C
:1014F000808188608083E0913C01F0913D01808192
:1015000080688083E0913C01F0913D0180818F7D76
:10151000808360E082E10E94FB0360E083E10E943F
:10152000FB0360E081E00E94FB0360E080E00E943A
:10153000FB038091E201882309F4DAC0CFB7F89465
:1015400080911C01811127C0ECE3F6E08491E0E575
:10155000F6E09491E82FF0E0EE0FFF1FEC5EF94FFC
:10156000A591B491EC91E92321F461E08AE00E9415
:10157000CD0361E08AE00E94FB038CB580618CBDE5
:101580008CB580648CBD61E08DE00E94FB0361E05E
:101590008BE00E94FB0380911C018F5F80931C01F4
:1015A000CFBF61E08091E1010E94FB0361E0809187
:1015B000E1010E94CD031092EB011092EA0110921A
:1015C000ED011092EC01C091E50129E0C29FC0013C
:1015D00011240E940D119093E7018093E6018C2F56
:1015E00090E0880F991F0E940D119093E90180935C
:1015F000E8018091F0019091F1018A5E904009F438
:101600009CC0EAEEF0E0F093F101E093F00110925B
:10161000F20188E08093F3011092F6011092F50137
:101620008FEF90E09093F8018093F7011092FA0108
:101630001092F901E491E63409F033C0EBEEF0E0EA
:10164000E491E13009F45FC082E090E0E23029F5F6
:10165000ECEEF0E08491EDEEF0E0E49190E0982F74
:1016600088278E0F911D9093F6018093F501EEEE81
:10167000F0E08491EFEEF0E0E49190E0982F88277D
:101680008E0F911D9093F8018093F701E0EFF0E049
:10169000E491E093F30187E090E09093FA01809366
:1016A000F901C090F901D090FA01F12CE12C2091C0
:1016B000F5013091F6014091F7015091F80160E099
:1016C0004217530708F437C0F601E651FF4F8491E3
:1016D000681708F4682F90E0B0E0A0E00196A11D23
:1016E000B11DC80ED91EEA1EFB1E2F5F3F4FE8CF6B
:1016F00061E08091DF010E94FB0361E08091E001E5
:101700000E94FB034ECFECEEF0E0E491F0E0F093AA
:10171000F601E093F501EDEEF0E0E491F0E0F093F6
:10172000F801E093F701EEEEF0E0E491E093F301CD
:1017300085E090E0B2CF6093F40150E040E063E0D8
:1017400070E08AED91E00E94EF0647E050E061E032
:1017500070E08AED91E00E94EF0647E050E062E021
:1017600070E08AED91E00E94EF0650E040E064E016
:1017700070E08AED91E00E94EF069091E5019150B2
:1017800080E069E058E04FEF869F90011124A0911E
:10179000E601B091E701A20FB31FFD01752F119271
:1017A0007A95E9F7E091E601F091E701E20FF31F86
:1017B00040878F5F981740F78091EE01882321F0D2
:1017C0008AED91E00E94770650E040E070E060E032
:1017D0008AED91E00E94EF068091E50181110E945F
:1017E0005D0681E30E943E058AE291E00E948D043D
:1017F000813309F0FAC082E30E943E05C1E000E0B7
:1018000010E097E0E92ED3E024E0D22E0E942C04D1
:101810002B013C0188EC882E912CA12CB12C0E942C
:101820002C046419750986099709683E734081057F
:101830009105A8F381E0881A9108A108B108E8EEA3
:101840004E0EE3E05E1E611C711C81149104A10424
:10185000B10429F78091E50181110E945D06C093D2
:101860001D01C0931E018AE291E00E94AF04892B02
:1018700049F08AE291E00E948D04853709F0C9C0E1
:1018800010921D0182E10E94A403F82E8093200192
:10189000811103C084E60E943E0583E10E94A403F7
:1018A000C82E80931F018111EFC085E70E943E057D
:1018B000FF2009F4EBC08091D70118160CF4B2C0D8
:1018C00080911E018111B0C08091D10185300CF052
:1018D000ABC08F5F8093D1018091CD012091CA016F
:1018E000280F2093CA019091CC013091CB01390F80
:1018F0003093CB0138300CF4A2C091959093CC0179
:10190000E092CB01273009F0A2C04091CB01609159
:10191000D101461794F0042E000C550B9091CF0185
:10192000062E000C770B690F711D461757072CF414
:1019300081958093CD012093CA018091CA0188309E
:1019400011F08F3F41F5C093D401D093D50110928F
:10195000D601D093D7011092D8011092D901C0932B
:10196000CE01D093CF01E092D001D093D10110925B
:10197000D2011092D3018091010190910001C09396
:10198000C801C093C9019093CA01D092CB01C09302
:10199000CC018093CD012091CB014091CA0160918F
:1019A000C9018091C8010E9480072091D701409110
:1019B000D6016091D5018091D4010E9480072091C9
:1019C000D1014091D0016091CF018091CE010E9460
:1019D00080070115110509F419CF0E94BB04882363
:1019E00009F414CF0E94000011CF823309F0FCCE1D
:1019F0008091CD0181958093CD018091CA01815064
:101A00008093CA018FEF8093010183E080930001EE
:101A1000F5CE843609F036CF10921E0133CFC110B7
:101A20004FCF49CF815038C080911D01811154CFD3
:101A30008091D10118160CF04FCF81504BCF37FF5A
:101A400061CF91959093CC011092CB015BCF211186
:101A500074CF2091CB014091D70124170CF46DCFA6
:101A6000022E000C330B9091D501042E000C550B67
:101A7000490F511D241735070CF05FCF81958093D6
:101A8000CD011092CA0159CFF1101ACF8091D70120
:101A900085300CF0C4CF8F5F8093D70111CF809138
:101AA000E201882399F09FB7F89480911C01882364
:101AB00019F0815080931C0180911C01811105C097
:101AC0008CB58F7B8CBD10921B019FBF8091E6016E
:101AD0009091E7010E94A9118091E8019091E9019C
:101AE0000C94A9115058BB27AA270E948A0D0C9468
:101AF000690E0E945B0E38F00E94620E20F039F4ED
:101B00009F3F19F426F40C94580E0EF4E095E7FB71
:101B10000C94520EE92F0E947A0E58F3BA176207FE
:101B200073078407950720F079F4A6F50C949C0EB2
:101B30000EF4E0950B2EBA2FA02D0B01B9019001E8
:101B40000C01CA01A0011124FF27591B99F0593F2C
:101B500050F4503E68F11A16F040A22F232F342F74
:101B60004427585FF3CF469537952795A795F040C2
:101B70005395C9F77EF41F16BA0B620B730B840BD7
:101B8000BAF09150A1F0FF0FBB1F661F771F881F8F
:101B9000C2F70EC0BA0F621F731F841F48F48795E7
:101BA00077956795B795F7959E3F08F0B0CF9395D9
:101BB000880F08F09927EE0F9795879508950E9452
:101BC000E60D6894B1110C949D0E08950E94820E4A
:101BD00088F09F5798F0B92F9927B751B0F0E1F0EE
:101BE000660F771F881F991F1AF0BA95C9F714C09E
:101BF000B13091F00E949C0EB1E008950C949C0EBF
:101C0000672F782F8827B85F39F0B93FCCF38695D6
:101C100077956795B395D9F73EF490958095709533
:101C200061957F4F8F4F9F4F0895E89409C097FBB0
:101C30003EF490958095709561957F4F8F4F9F4FA3
:101C40009923A9F0F92F96E9BB279395F6958795E7
:101C500077956795B795F111F8CFFAF4BB0F11F4AA
:101C600060FF1BC06F5F7F4F8F4F9F4F16C0882351
:101C700011F096E911C0772321F09EE8872F762F87
:101C800005C0662371F096E8862F70E060E02AF0C8
:101C90009A95660F771F881FDAF7880F96958795B4
:101CA00097F9089597F99F6780E870E060E00895DC
:101CB0009FEF80EC089500240A9416161706180664
:101CC0000906089500240A94121613061406050640
:101CD0000895092E0394000C11F4882352F0BB0FD1
:101CE00040F4BF2B11F460FF04C06F5F7F4F8F4F34
:101CF0009F4F089557FD9058440F551F59F05F3F6F
:101D000071F04795880F97FB991F61F09F3F79F01D
:101D100087950895121613061406551FF2CF46959F
:101D2000F1DF08C0161617061806991FF1CF869521
:101D30007105610508940895E894BB276627772705
:101D4000CB0197F90895FA01EE0FFF1F3096210598
:101D50003105A1F16115710561F48038BFE39B077E
:101D600049F168949038810561F08038BFEF9B0796
:101D700041F099234AF5FF3FE1053105210519F1AD
:101D8000E8940894E795D901AA2329F4AB2FBE2F34
:101D9000F85FD0F310C0FF5F70F4A695E0F7F73955
:101DA00050F019F0FF3A38F49F779F930DD00F90C1
:101DB00007FC9058089546F00C94580E60E070E0CF
:101DC00080E89FE308954FE79F775F934F933F939A
:101DD0002F930E949E0F2F913F914F915F910E94F0
:101DE0001A100C94FB0E29F416F00C94520E0C945D
:101DF0009C0E0C94580E0E94820EA8F39638A0F701
:101E000007F80F92E8942BE33AEA48EB5FE70E9469
:101E100030100F920F920F924DB75EB70F920E9443
:101E2000E60FE8E6F0E00E942D0F4F915F91EF91F1
:101E3000FF91E595EE1FFF1F49F0FE57E06844272C
:101E4000EE0F441FFA95E1F74195550B0E94600F84
:101E50000F9007FE0C94540F0895DF93CF931F93B8
:101E60000F93FF92EF92DF927B018C01689406C082
:101E7000DA2EEF010E942D10FE01E894A591259124
:101E8000359145915591A6F3EF010E948A0DFE010F
:101E90009701A801DA9469F7DF90EF90FF900F9116
:101EA0001F91CF91DF9108959B01AC0160E070E03C
:101EB00080E89FE30C9487100C94520E0C94F91058
:101EC0000E94820ED8F39923C9F3940F511DA3F3F6
:101ED0009150504094F059F0882332F0660F771FEC
:101EE000881F91505040C1F79E3F51052CF7880F35
:101EF000911D9695879597F908955F3FACF0983EB0
:101F00009CF0BB27869577956795B79508F4B160E7
:101F10009395C1F7BB0F58F711F460FFE8CF6F5FDF
:101F20007F4F8F4F9F4FE3CF0C949D0E16F00C9474
:101F3000F9100C94580E68940C94520E0E94820E64
:101F4000A8F39923C1F3AEF3DF93CF931F930F93BD
:101F5000FF92C92FDD2788232AF02197660F771F6C
:101F6000881FDAF720E030E040E85FEB9FE3883934
:101F700020F0803E38F021968F770E94730DE0E9C3
:101F8000F0E004C00E94730DEDEBF0E00E942D0F15
:101F90008B01BE01EC01FB2E6F5771097595771F00
:101FA000880B990B0E94170E28E132E741E35FE3AB
:101FB0000E942D10AF2D9801AE01FF900F911F913F
:101FC000CF91DF910E948A0D0C94690EFA01DC0119
:101FD000AA0FBB1F9B01AC01BF5728F42227332750
:101FE0004427507820C0B75190F4AB2F0024469579
:101FF00037952795011CA395D2F3002071F0220F8D
:10200000331F441FB395DAF30ED00C94720D613078
:102010007105A0E88A07B94630F49B01AC01662738
:10202000772788279078309621F020833183428368
:10203000538308950E942D100C94690E0E945B0E2C
:1020400038F00E94620E20F0952311F00C94520E8D
:102050000C94580E11240C949D0E0E947A0E70F36D
:10206000959FC1F3950F50E0551F629FF001729F3D
:10207000BB27F00DB11D639FAA27F00DB11DAA1F4C
:10208000649F6627B00DA11D661F829F2227B00D99
:10209000A11D621F739FB00DA11D621F839FA00D24
:1020A000611D221F749F3327A00D611D231F849F74
:1020B000600D211D822F762F6A2F11249F575040CB
:1020C0009AF0F1F088234AF0EE0FFF1FBB1F661F46
:1020D000771F881F91505040A9F79E3F510580F00F
:1020E0000C94520E0C949D0E5F3FE4F3983ED4F393
:1020F000869577956795B795F795E7959F5FC1F7B3
:10210000FE2B880F911D9695879597F908950E944B
:102110009B100C94690E0E94620E58F00E945B0E98
:1021200040F029F45F3F29F00C94520E51110C94A9
:102130009D0E0C94580E0E947A0E68F39923B1F309
:10214000552391F3951B550BBB27AA2762177307DD
:10215000840738F09F5F5F4F220F331F441FAA1F71
:10216000A9F335D00E2E3AF0E0E832D0915050402D
:10217000E695001CCAF72BD0FE2F29D0660F771FDB
:10218000881FBB1F261737074807AB07B0E809F0C1
:10219000BB0B802DBF01FF2793585F4F3AF09E3F46
:1021A000510578F00C94520E0C949D0E5F3FE4F3B1
:1021B000983ED4F3869577956795B795F7959F5F89
:1021C000C9F7880F911D9695879597F90895E1E0D5
:1021D000660F771F881FBB1F621773078407BA0734
:1021E00020F0621B730B840BBA0BEE1F88F7E0958F
:1021F00008959F3F31F0915020F48795779567952A
:10220000B795880F911D9695879597F90895EE0FCC
:10221000FF1F0590F491E02D09940F931F93CF9326
:10222000DF938230910510F482E090E0E091FD01AF
:10223000F091FE0130E020E0B0E0A0E0309799F4AA
:102240002115310509F44AC0281B390B243031050A
:10225000D8F58A819B816115710589F1FB01938312
:102260008283FE0111C04081518102811381481790
:102270005907E0F04817590799F4109761F0129642
:102280000C93129713961C933296CF01DF91CF9146
:102290001F910F9108950093FD011093FE01F4CF5B
:1022A0002115310551F04217530738F0A901DB0120
:1022B0009A01BD01DF01F801C1CFEF01F9CF909381
:1022C000FE018093FD01CDCFFE01E20FF31F81934C
:1022D00091932250310939832883D7CF2091FB0174
:1022E0003091FC01232B41F4209104013091050130
:1022F0003093FC012093FB012091020130910301F6
:102300002115310541F42DB73EB74091060150919A
:102310000701241B350BE091FB01F091FC01E21752
:10232000F307A0F42E1B3F0B2817390778F0AC01F8
:102330004E5F5F4F2417350748F04E0F5F1F5093D5
:10234000FC014093FB01819391939FCFF0E0E0E08B
:102350009CCFCF93DF930097E9F0FC013297138273
:102360001282A091FD01B091FE01ED0130E020E06C
:102370001097A1F420813181820F931F2091FB01DE
:102380003091FC012817390709F061C0F093FC0176
:10239000E093FB01DF91CF910895EA01CE17DF07AB
:1023A000E8F54A815B819E0141155105B1F7E901CC
:1023B000FB83EA8349915991C40FD51FEC17FD07A0
:1023C00061F4808191810296840F951FE9019983C0
:1023D0008883828193819B838A83F0E0E0E0129678
:1023E0008D919C9113970097B9F52D913C91119780
:1023F000CD010296820F931F2091FB013091FC01C9
:102400002817390739F6309751F51092FE011092CE
:10241000FD01B093FC01A093FB01BCCFD383C28329
:1024200040815181840F951FC817D90761F44E5F11
:102430005F4F88819981480F591F518340838A815A
:102440009B81938382832115310509F0B0CFF093EE
:10245000FE01E093FD019ECFFD01DC01C0CF1382A0
:102460001282D7CFDC0101C06D9341505040E0F79C
:10247000089513E0C8E3D3E004C0FE010E940711F1
:0C2480002196C933D107C9F7F894FFCFAB
:10248C0004010000FF01800000000000F104510471
:0A249C007E044305AF048D04A10483
:00000001FF
